:1000530041542B4349504D55583D310D0A004154ED
:100063002B4349505345525645523D312C38303875
:04007300300D0A0042
:1000A700758920758DFD758BFDD28EC29FD29ED22C
:0600B7009CD2AFD2AC2286
:1000BD001200776010F5993099FDC299740129F9F4
:0600CD00E43AFA80EB2288
:0B00DF00EF1FAC0670011E4C70F622F3
:100090007BFF7A0079531200BD7F507EC31200DFD0
:0700A0007A0079610200BD46
:100003007F507EC31200DF7F887E131200DF120051
:09001300A7120090E4F5A080FEA4
:03002300020026B2
:10002600C0E0C0D075D000C00730981AC298AF990A
:10003600EF249E600B14600C2402700AB2A08006A6
:0D004600B2A18002B2A2D007D0D0D0E0322B
:030000000200D328
:0C00D300787FE4F6D8FD75810702000379
:10007700BB010689828A83E0225002E722BBFE0287
:09008700E32289828A83E49322BA
:00000001FF
